{
  "_format": "hh-sol-artifact-1",
  "contractName": "DegenToken",
  "sourceName": "contracts/DegenToken.sol",
  "abi": [
    {
      "inputs": [],
      "stateMutability": "nonpayable",
      "type": "constructor"
    },
    {
      "anonymous": false,
      "inputs": [
        {
          "indexed": true,
          "internalType": "address",
          "name": "owner",
          "type": "address"
        },
        {
          "indexed": true,
          "internalType": "address",
          "name": "spender",
          "type": "address"
        },
        {
          "indexed": false,
          "internalType": "uint256",
          "name": "value",
          "type": "uint256"
        }
      ],
      "name": "Approval",
      "type": "event"
    },
    {
      "anonymous": false,
      "inputs": [
        {
          "indexed": true,
          "internalType": "address",
          "name": "from",
          "type": "address"
        },
        {
          "indexed": true,
          "internalType": "address",
          "name": "to",
          "type": "address"
        },
        {
          "indexed": false,
          "internalType": "uint256",
          "name": "value",
          "type": "uint256"
        }
      ],
      "name": "Transfer",
      "type": "event"
    },
    {
      "inputs": [
        {
          "internalType": "address",
          "name": "owner",
          "type": "address"
        },
        {
          "internalType": "address",
          "name": "spender",
          "type": "address"
        }
      ],
      "name": "allowance",
      "outputs": [
        {
          "internalType": "uint256",
          "name": "",
          "type": "uint256"
        }
      ],
      "stateMutability": "view",
      "type": "function"
    },
    {
      "inputs": [
        {
          "internalType": "address",
          "name": "spender",
          "type": "address"
        },
        {
          "internalType": "uint256",
          "name": "amount",
          "type": "uint256"
        }
      ],
      "name": "approve",
      "outputs": [
        {
          "internalType": "bool",
          "name": "",
          "type": "bool"
        }
      ],
      "stateMutability": "nonpayable",
      "type": "function"
    },
    {
      "inputs": [
        {
          "internalType": "address",
          "name": "account",
          "type": "address"
        }
      ],
      "name": "balanceOf",
      "outputs": [
        {
          "internalType": "uint256",
          "name": "",
          "type": "uint256"
        }
      ],
      "stateMutability": "view",
      "type": "function"
    },
    {
      "inputs": [],
      "name": "decimals",
      "outputs": [
        {
          "internalType": "uint8",
          "name": "",
          "type": "uint8"
        }
      ],
      "stateMutability": "pure",
      "type": "function"
    },
    {
      "inputs": [
        {
          "internalType": "address",
          "name": "spender",
          "type": "address"
        },
        {
          "internalType": "uint256",
          "name": "subtractedValue",
          "type": "uint256"
        }
      ],
      "name": "decreaseAllowance",
      "outputs": [
        {
          "internalType": "bool",
          "name": "",
          "type": "bool"
        }
      ],
      "stateMutability": "nonpayable",
      "type": "function"
    },
    {
      "inputs": [],
      "name": "fruitsAvailable",
      "outputs": [],
      "stateMutability": "view",
      "type": "function"
    },
    {
      "inputs": [],
      "name": "getBalance",
      "outputs": [
        {
          "internalType": "uint256",
          "name": "",
          "type": "uint256"
        }
      ],
      "stateMutability": "view",
      "type": "function"
    },
    {
      "inputs": [
        {
          "internalType": "address",
          "name": "spender",
          "type": "address"
        },
        {
          "internalType": "uint256",
          "name": "addedValue",
          "type": "uint256"
        }
      ],
      "name": "increaseAllowance",
      "outputs": [
        {
          "internalType": "bool",
          "name": "",
          "type": "bool"
        }
      ],
      "stateMutability": "nonpayable",
      "type": "function"
    },
    {
      "inputs": [
        {
          "internalType": "address",
          "name": "to",
          "type": "address"
        },
        {
          "internalType": "uint256",
          "name": "amount",
          "type": "uint256"
        }
      ],
      "name": "mint",
      "outputs": [],
      "stateMutability": "nonpayable",
      "type": "function"
    },
    {
      "inputs": [],
      "name": "name",
      "outputs": [
        {
          "internalType": "string",
          "name": "",
          "type": "string"
        }
      ],
      "stateMutability": "view",
      "type": "function"
    },
    {
      "inputs": [],
      "name": "owner",
      "outputs": [
        {
          "internalType": "address",
          "name": "",
          "type": "address"
        }
      ],
      "stateMutability": "view",
      "type": "function"
    },
    {
      "inputs": [
        {
          "internalType": "uint256",
          "name": "fruit",
          "type": "uint256"
        }
      ],
      "name": "redeemTokensForFruit",
      "outputs": [],
      "stateMutability": "payable",
      "type": "function"
    },
    {
      "inputs": [
        {
          "internalType": "uint256",
          "name": "vegetable",
          "type": "uint256"
        }
      ],
      "name": "redeemTokensForVegetable",
      "outputs": [],
      "stateMutability": "payable",
      "type": "function"
    },
    {
      "inputs": [],
      "name": "symbol",
      "outputs": [
        {
          "internalType": "string",
          "name": "",
          "type": "string"
        }
      ],
      "stateMutability": "view",
      "type": "function"
    },
    {
      "inputs": [],
      "name": "totalSupply",
      "outputs": [
        {
          "internalType": "uint256",
          "name": "",
          "type": "uint256"
        }
      ],
      "stateMutability": "view",
      "type": "function"
    },
    {
      "inputs": [
        {
          "internalType": "address",
          "name": "to",
          "type": "address"
        },
        {
          "internalType": "uint256",
          "name": "amount",
          "type": "uint256"
        }
      ],
      "name": "transfer",
      "outputs": [
        {
          "internalType": "bool",
          "name": "",
          "type": "bool"
        }
      ],
      "stateMutability": "nonpayable",
      "type": "function"
    },
    {
      "inputs": [
        {
          "internalType": "address",
          "name": "from",
          "type": "address"
        },
        {
          "internalType": "address",
          "name": "to",
          "type": "address"
        },
        {
          "internalType": "uint256",
          "name": "amount",
          "type": "uint256"
        }
      ],
      "name": "transferFrom",
      "outputs": [
        {
          "internalType": "bool",
          "name": "",
          "type": "bool"
        }
      ],
      "stateMutability": "nonpayable",
      "type": "function"
    },
    {
      "inputs": [],
      "name": "vegetablesAvailable",
      "outputs": [],
      "stateMutability": "view",
      "type": "function"
    }
  ],
  "bytecode": "0x60806040523480156200001157600080fd5b506040518060400160405280600581526020017f446567656e0000000000000000000000000000000000000000000000000000008152506040518060400160405280600381526020017f44474e000000000000000000000000000000000000000000000000000000000081525081600390816200008f919062000365565b508060049081620000a1919062000365565b50505033600560006101000a81548173ffffffffffffffffffffffffffffffffffffffff021916908373ffffffffffffffffffffffffffffffffffffffff1602179055506200044c565b600081519050919050565b7f4e487b7100000000000000000000000000000000000000000000000000000000600052604160045260246000fd5b7f4e487b7100000000000000000000000000000000000000000000000000000000600052602260045260246000fd5b600060028204905060018216806200016d57607f821691505b60208210810362000183576200018262000125565b5b50919050565b60008190508160005260206000209050919050565b60006020601f8301049050919050565b600082821b905092915050565b600060088302620001ed7fffffffffffffffffffffffffffffffffffffffffffffffffffffffffffffffff82620001ae565b620001f98683620001ae565b95508019841693508086168417925050509392505050565b6000819050919050565b6000819050919050565b600062000246620002406200023a8462000211565b6200021b565b62000211565b9050919050565b6000819050919050565b620002628362000225565b6200027a62000271826200024d565b848454620001bb565b825550505050565b600090565b6200029162000282565b6200029e81848462000257565b505050565b5b81811015620002c657620002ba60008262000287565b600181019050620002a4565b5050565b601f8211156200031557620002df8162000189565b620002ea846200019e565b81016020851015620002fa578190505b6200031262000309856200019e565b830182620002a3565b50505b505050565b600082821c905092915050565b60006200033a600019846008026200031a565b1980831691505092915050565b600062000355838362000327565b9150826002028217905092915050565b6200037082620000eb565b67ffffffffffffffff8111156200038c576200038b620000f6565b5b62000398825462000154565b620003a5828285620002ca565b600060209050601f831160018114620003dd5760008415620003c8578287015190505b620003d4858262000347565b86555062000444565b601f198416620003ed8662000189565b60005b828110156200041757848901518255600182019150602085019450602081019050620003f0565b8683101562000437578489015162000433601f89168262000327565b8355505b6001600288020188555050505b505050505050565b6122e6806200045c6000396000f3fe6080604052600436106101095760003560e01c806358e12a3211610095578063a457c2d711610064578063a457c2d714610360578063a9059cbb1461039d578063da68545e146103da578063dd62ed3e146103f1578063ebec7b161461042e57610109565b806358e12a32146102b657806370a08231146102cd5780638da5cb5b1461030a57806395d89b411461033557610109565b806323b872dd116100dc57806323b872dd146101cc578063313ce56714610209578063327c679314610234578063395093511461025057806340c10f191461028d57610109565b806306fdde031461010e578063095ea7b31461013957806312065fe01461017657806318160ddd146101a1575b600080fd5b34801561011a57600080fd5b5061012361044a565b60405161013091906119a9565b60405180910390f35b34801561014557600080fd5b50610160600480360381019061015b9190611a64565b6104dc565b60405161016d9190611abf565b60405180910390f35b34801561018257600080fd5b5061018b6104ff565b6040516101989190611ae9565b60405180910390f35b3480156101ad57600080fd5b506101b6610580565b6040516101c39190611ae9565b60405180910390f35b3480156101d857600080fd5b506101f360048036038101906101ee9190611b04565b61058a565b6040516102009190611abf565b60405180910390f35b34801561021557600080fd5b5061021e6105b9565b60405161022b9190611b73565b60405180910390f35b61024e60048036038101906102499190611b8e565b6105be565b005b34801561025c57600080fd5b5061027760048036038101906102729190611a64565b610997565b6040516102849190611abf565b60405180910390f35b34801561029957600080fd5b506102b460048036038101906102af9190611a64565b6109ce565b005b3480156102c257600080fd5b506102cb610a36565b005b3480156102d957600080fd5b506102f460048036038101906102ef9190611bbb565b610b13565b6040516103019190611ae9565b60405180910390f35b34801561031657600080fd5b5061031f610b5b565b60405161032c9190611bf7565b60405180910390f35b34801561034157600080fd5b5061034a610b81565b60405161035791906119a9565b60405180910390f35b34801561036c57600080fd5b5061038760048036038101906103829190611a64565b610c13565b6040516103949190611abf565b60405180910390f35b3480156103a957600080fd5b506103c460048036038101906103bf9190611a64565b610c8a565b6040516103d19190611abf565b60405180910390f35b3480156103e657600080fd5b506103ef610cad565b005b3480156103fd57600080fd5b5061041860048036038101906104139190611c12565b610d8a565b6040516104259190611ae9565b60405180910390f35b61044860048036038101906104439190611b8e565b610e11565b005b60606003805461045990611c81565b80601f016020809104026020016040519081016040528092919081815260200182805461048590611c81565b80156104d25780601f106104a7576101008083540402835291602001916104d2565b820191906000526020600020905b8154815290600101906020018083116104b557829003601f168201915b5050505050905090565b6000806104e7611224565b90506104f481858561122c565b600191505092915050565b60003073ffffffffffffffffffffffffffffffffffffffff166370a08231336040518263ffffffff1660e01b815260040161053a9190611bf7565b602060405180830381865afa158015610557573d6000803e3d6000fd5b505050506040513d601f19601f8201168201806040525081019061057b9190611cc7565b905090565b6000600254905090565b600080610595611224565b90506105a28582856113f5565b6105ad858585611481565b60019150509392505050565b600090565b60018103610704576103e83073ffffffffffffffffffffffffffffffffffffffff166370a08231336040518263ffffffff1660e01b81526004016106029190611bf7565b602060405180830381865afa15801561061f573d6000803e3d6000fd5b505050506040513d601f19601f820116820180604052508101906106439190611cc7565b1015610684576040517f08c379a000000000000000000000000000000000000000000000000000000000815260040161067b90611d40565b60405180910390fd5b610690336103e86104dc565b506106c033600560009054906101000a900473ffffffffffffffffffffffffffffffffffffffff166103e861058a565b506106ff6040518060400160405280601f81526020017f596f7520686176652072656465656d656420666f72206120436172726f7421008152506116f7565b610994565b6002810361084a576101f43073ffffffffffffffffffffffffffffffffffffffff166370a08231336040518263ffffffff1660e01b81526004016107489190611bf7565b602060405180830381865afa158015610765573d6000803e3d6000fd5b505050506040513d601f19601f820116820180604052508101906107899190611cc7565b10156107ca576040517f08c379a00000000000000000000000000000000000000000000000000000000081526004016107c190611d40565b60405180910390fd5b6107d6336101f46104dc565b5061080633600560009054906101000a900473ffffffffffffffffffffffffffffffffffffffff166101f461058a565b506108456040518060400160405280601f81526020017f596f7520686176652072656465656d656420666f722042726f63636f6c6921008152506116f7565b610993565b600381036109705760fa3073ffffffffffffffffffffffffffffffffffffffff166370a08231336040518263ffffffff1660e01b815260040161088d9190611bf7565b602060405180830381865afa1580156108aa573d6000803e3d6000fd5b505050506040513d601f19601f820116820180604052508101906108ce9190611cc7565b101561090f576040517f08c379a000000000000000000000000000000000000000000000000000000000815260040161090690611d40565b60405180910390fd5b61091a3360fa6104dc565b5061094933600560009054906101000a900473ffffffffffffffffffffffffffffffffffffffff1660fa61058a565b5061096b60405180606001604052806021815260200161226c602191396116f7565b610992565b61099160405180606001604052806024815260200161228d602491396116f7565b5b5b5b50565b6000806109a2611224565b90506109c38185856109b48589610d8a565b6109be9190611d8f565b61122c565b600191505092915050565b600560009054906101000a900473ffffffffffffffffffffffffffffffffffffffff1673ffffffffffffffffffffffffffffffffffffffff163373ffffffffffffffffffffffffffffffffffffffff1614610a2857600080fd5b610a328282611790565b5050565b610a57604051806060016040528060348152602001612238603491396116f7565b610a956040518060400160405280601781526020017f313a20636172726f74202d203130303020546f6b656e200000000000000000008152506116f7565b610ad36040518060400160405280601881526020017f323a2062726f63636f6c69202d2035303020546f6b656e2000000000000000008152506116f7565b610b116040518060400160405280601881526020017f333a20637563756d626572202d2032353020546f6b656e2000000000000000008152506116f7565b565b60008060008373ffffffffffffffffffffffffffffffffffffffff1673ffffffffffffffffffffffffffffffffffffffff168152602001908152602001600020549050919050565b600560009054906101000a900473ffffffffffffffffffffffffffffffffffffffff1681565b606060048054610b9090611c81565b80601f0160208091040260200160405190810160405280929190818152602001828054610bbc90611c81565b8015610c095780601f10610bde57610100808354040283529160200191610c09565b820191906000526020600020905b815481529060010190602001808311610bec57829003601f168201915b5050505050905090565b600080610c1e611224565b90506000610c2c8286610d8a565b905083811015610c71576040517f08c379a0000000000000000000000000000000000000000000000000000000008152600401610c6890611e35565b60405180910390fd5b610c7e828686840361122c565b60019250505092915050565b600080610c95611224565b9050610ca2818585611481565b600191505092915050565b610cce604051806060016040528060308152602001612208603091396116f7565b610d0c6040518060400160405280600881526020017f313a206170706c650000000000000000000000000000000000000000000000008152506116f7565b610d4a6040518060400160405280600981526020017f323a2062616e616e6100000000000000000000000000000000000000000000008152506116f7565b610d886040518060400160405280600981526020017f333a206f72616e676500000000000000000000000000000000000000000000008152506116f7565b565b6000600160008473ffffffffffffffffffffffffffffffffffffffff1673ffffffffffffffffffffffffffffffffffffffff16815260200190815260200160002060008373ffffffffffffffffffffffffffffffffffffffff1673ffffffffffffffffffffffffffffffffffffffff16815260200190815260200160002054905092915050565b60018103610f57576103e83073ffffffffffffffffffffffffffffffffffffffff166370a08231336040518263ffffffff1660e01b8152600401610e559190611bf7565b602060405180830381865afa158015610e72573d6000803e3d6000fd5b505050506040513d601f19601f82011682018060405250810190610e969190611cc7565b1015610ed7576040517f08c379a0000000000000000000000000000000000000000000000000000000008152600401610ece90611d40565b60405180910390fd5b610ee3336103e86104dc565b50610f1333600560009054906101000a900473ffffffffffffffffffffffffffffffffffffffff166103e861058a565b50610f526040518060400160405280601f81526020017f596f7520686176652072656465656d656420666f7220616e204170706c6521008152506116f7565b611221565b6002810361109d576101f43073ffffffffffffffffffffffffffffffffffffffff166370a08231336040518263ffffffff1660e01b8152600401610f9b9190611bf7565b602060405180830381865afa158015610fb8573d6000803e3d6000fd5b505050506040513d601f19601f82011682018060405250810190610fdc9190611cc7565b101561101d576040517f08c379a000000000000000000000000000000000000000000000000000000000815260040161101490611d40565b60405180910390fd5b611029336101f46104dc565b5061105933600560009054906101000a900473ffffffffffffffffffffffffffffffffffffffff166101f461058a565b506110986040518060400160405280601f81526020017f596f7520686176652072656465656d656420666f7220612042616e616e6121008152506116f7565b611220565b600381036111e05760fa3073ffffffffffffffffffffffffffffffffffffffff166370a08231336040518263ffffffff1660e01b81526004016110e09190611bf7565b602060405180830381865afa1580156110fd573d6000803e3d6000fd5b505050506040513d601f19601f820116820180604052508101906111219190611cc7565b1015611162576040517f08c379a000000000000000000000000000000000000000000000000000000000815260040161115990611d40565b60405180910390fd5b61116d3360fa6104dc565b5061119c33600560009054906101000a900473ffffffffffffffffffffffffffffffffffffffff1660fa61058a565b506111db6040518060400160405280602081526020017f596f7520686176652072656465656d656420666f7220616e204f72616e6765218152506116f7565b61121f565b61121e6040518060400160405280602081526020017f54686174206973206e6f7420612076616c69642066727569742063686f6963658152506116f7565b5b5b5b50565b600033905090565b600073ffffffffffffffffffffffffffffffffffffffff168373ffffffffffffffffffffffffffffffffffffffff160361129b576040517f08c379a000000000000000000000000000000000000000000000000000000000815260040161129290611ec7565b60405180910390fd5b600073ffffffffffffffffffffffffffffffffffffffff168273ffffffffffffffffffffffffffffffffffffffff160361130a576040517f08c379a000000000000000000000000000000000000000000000000000000000815260040161130190611f59565b60405180910390fd5b80600160008573ffffffffffffffffffffffffffffffffffffffff1673ffffffffffffffffffffffffffffffffffffffff16815260200190815260200160002060008473ffffffffffffffffffffffffffffffffffffffff1673ffffffffffffffffffffffffffffffffffffffff168152602001908152602001600020819055508173ffffffffffffffffffffffffffffffffffffffff168373ffffffffffffffffffffffffffffffffffffffff167f8c5be1e5ebec7d5bd14f71427d1e84f3dd0314c0f7b2291e5b200ac8c7c3b925836040516113e89190611ae9565b60405180910390a3505050565b60006114018484610d8a565b90507fffffffffffffffffffffffffffffffffffffffffffffffffffffffffffffffff811461147b578181101561146d576040517f08c379a000000000000000000000000000000000000000000000000000000000815260040161146490611fc5565b60405180910390fd5b61147a848484840361122c565b5b50505050565b600073ffffffffffffffffffffffffffffffffffffffff168373ffffffffffffffffffffffffffffffffffffffff16036114f0576040517f08c379a00000000000000000000000000000000000000000000000000000000081526004016114e790612057565b60405180910390fd5b600073ffffffffffffffffffffffffffffffffffffffff168273ffffffffffffffffffffffffffffffffffffffff160361155f576040517f08c379a0000000000000000000000000000000000000000000000000000000008152600401611556906120e9565b60405180910390fd5b61156a8383836118e6565b60008060008573ffffffffffffffffffffffffffffffffffffffff1673ffffffffffffffffffffffffffffffffffffffff168152602001908152602001600020549050818110156115f0576040517f08c379a00000000000000000000000000000000000000000000000000000000081526004016115e79061217b565b60405180910390fd5b8181036000808673ffffffffffffffffffffffffffffffffffffffff1673ffffffffffffffffffffffffffffffffffffffff16815260200190815260200160002081905550816000808573ffffffffffffffffffffffffffffffffffffffff1673ffffffffffffffffffffffffffffffffffffffff168152602001908152602001600020600082825401925050819055508273ffffffffffffffffffffffffffffffffffffffff168473ffffffffffffffffffffffffffffffffffffffff167fddf252ad1be2c89b69c2b068fc378daa952ba7f163c4a11628f55a4df523b3ef846040516116de9190611ae9565b60405180910390a36116f18484846118eb565b50505050565b61178d8160405160240161170b91906119a9565b6040516020818303038152906040527f41304fac000000000000000000000000000000000000000000000000000000007bffffffffffffffffffffffffffffffffffffffffffffffffffffffff19166020820180517bffffffffffffffffffffffffffffffffffffffffffffffffffffffff83818316178352505050506118f0565b50565b600073ffffffffffffffffffffffffffffffffffffffff168273ffffffffffffffffffffffffffffffffffffffff16036117ff576040517f08c379a00000000000000000000000000000000000000000000000000000000081526004016117f6906121e7565b60405180910390fd5b61180b600083836118e6565b806002600082825461181d9190611d8f565b92505081905550806000808473ffffffffffffffffffffffffffffffffffffffff1673ffffffffffffffffffffffffffffffffffffffff168152602001908152602001600020600082825401925050819055508173ffffffffffffffffffffffffffffffffffffffff16600073ffffffffffffffffffffffffffffffffffffffff167fddf252ad1be2c89b69c2b068fc378daa952ba7f163c4a11628f55a4df523b3ef836040516118ce9190611ae9565b60405180910390a36118e2600083836118eb565b5050565b505050565b505050565b60008151905060006a636f6e736f6c652e6c6f679050602083016000808483855afa5050505050565b600081519050919050565b600082825260208201905092915050565b60005b83811015611953578082015181840152602081019050611938565b60008484015250505050565b6000601f19601f8301169050919050565b600061197b82611919565b6119858185611924565b9350611995818560208601611935565b61199e8161195f565b840191505092915050565b600060208201905081810360008301526119c38184611970565b905092915050565b600080fd5b600073ffffffffffffffffffffffffffffffffffffffff82169050919050565b60006119fb826119d0565b9050919050565b611a0b816119f0565b8114611a1657600080fd5b50565b600081359050611a2881611a02565b92915050565b6000819050919050565b611a4181611a2e565b8114611a4c57600080fd5b50565b600081359050611a5e81611a38565b92915050565b60008060408385031215611a7b57611a7a6119cb565b5b6000611a8985828601611a19565b9250506020611a9a85828601611a4f565b9150509250929050565b60008115159050919050565b611ab981611aa4565b82525050565b6000602082019050611ad46000830184611ab0565b92915050565b611ae381611a2e565b82525050565b6000602082019050611afe6000830184611ada565b92915050565b600080600060608486031215611b1d57611b1c6119cb565b5b6000611b2b86828701611a19565b9350506020611b3c86828701611a19565b9250506040611b4d86828701611a4f565b9150509250925092565b600060ff82169050919050565b611b6d81611b57565b82525050565b6000602082019050611b886000830184611b64565b92915050565b600060208284031215611ba457611ba36119cb565b5b6000611bb284828501611a4f565b91505092915050565b600060208284031215611bd157611bd06119cb565b5b6000611bdf84828501611a19565b91505092915050565b611bf1816119f0565b82525050565b6000602082019050611c0c6000830184611be8565b92915050565b60008060408385031215611c2957611c286119cb565b5b6000611c3785828601611a19565b9250506020611c4885828601611a19565b9150509250929050565b7f4e487b7100000000000000000000000000000000000000000000000000000000600052602260045260246000fd5b60006002820490506001821680611c9957607f821691505b602082108103611cac57611cab611c52565b5b50919050565b600081519050611cc181611a38565b92915050565b600060208284031215611cdd57611cdc6119cb565b5b6000611ceb84828501611cb2565b91505092915050565b7f596f7520646f206e6f74206861766520656e6f75676820546f6b656e73000000600082015250565b6000611d2a601d83611924565b9150611d3582611cf4565b602082019050919050565b60006020820190508181036000830152611d5981611d1d565b9050919050565b7f4e487b7100000000000000000000000000000000000000000000000000000000600052601160045260246000fd5b6000611d9a82611a2e565b9150611da583611a2e565b9250828201905080821115611dbd57611dbc611d60565b5b92915050565b7f45524332303a2064656372656173656420616c6c6f77616e63652062656c6f7760008201527f207a65726f000000000000000000000000000000000000000000000000000000602082015250565b6000611e1f602583611924565b9150611e2a82611dc3565b604082019050919050565b60006020820190508181036000830152611e4e81611e12565b9050919050565b7f45524332303a20617070726f76652066726f6d20746865207a65726f2061646460008201527f7265737300000000000000000000000000000000000000000000000000000000602082015250565b6000611eb1602483611924565b9150611ebc82611e55565b604082019050919050565b60006020820190508181036000830152611ee081611ea4565b9050919050565b7f45524332303a20617070726f766520746f20746865207a65726f20616464726560008201527f7373000000000000000000000000000000000000000000000000000000000000602082015250565b6000611f43602283611924565b9150611f4e82611ee7565b604082019050919050565b60006020820190508181036000830152611f7281611f36565b9050919050565b7f45524332303a20696e73756666696369656e7420616c6c6f77616e6365000000600082015250565b6000611faf601d83611924565b9150611fba82611f79565b602082019050919050565b60006020820190508181036000830152611fde81611fa2565b9050919050565b7f45524332303a207472616e736665722066726f6d20746865207a65726f20616460008201527f6472657373000000000000000000000000000000000000000000000000000000602082015250565b6000612041602583611924565b915061204c82611fe5565b604082019050919050565b6000602082019050818103600083015261207081612034565b9050919050565b7f45524332303a207472616e7366657220746f20746865207a65726f206164647260008201527f6573730000000000000000000000000000000000000000000000000000000000602082015250565b60006120d3602383611924565b91506120de82612077565b604082019050919050565b60006020820190508181036000830152612102816120c6565b9050919050565b7f45524332303a207472616e7366657220616d6f756e742065786365656473206260008201527f616c616e63650000000000000000000000000000000000000000000000000000602082015250565b6000612165602683611924565b915061217082612109565b604082019050919050565b6000602082019050818103600083015261219481612158565b9050919050565b7f45524332303a206d696e7420746f20746865207a65726f206164647265737300600082015250565b60006121d1601f83611924565b91506121dc8261219b565b602082019050919050565b60006020820190508181036000830152612200816121c4565b905091905056fe54686520666f6c6c6f77696e67206672756974732061726520617661696c61626c6520666f722070757263686173653a54686520666f6c6c6f77696e6720766567657461626c65732061726520617661696c61626c6520666f722070757263686173653a596f7520686176652072656465656d656420666f72206120437563756d6265722154686174206973206e6f7420612076616c696420766567657461626c652063686f696365a2646970667358221220a4e6d4da13631b2ff947c6d42101d4525913c20ba3f8fb47b77d5681b9663bae64736f6c63430008120033",
  "linkReferences": {},
  "deployedLinkReferences": {}
}